:020000040800F2
:100000008804002045010008311600083316000856
:10001000371600083B1600083F16000800000000D5
:10002000000000000000000000000000431600086F
:100030004516000800000000471600084916000891
:100040005F0100085F0100085F0100085F01000810
:100050005F0100085F010008691600085F010008E1
:100060005F0100085F010008511600085F010008E9
:100070005F0100085F0100085F0100085F010008E0
:100080005F0100085F0100085F0100085F010008D0
:100090005F0100085F0100085F0100085F010008C0
:1000A0005F0100085F0100085F0100085F010008B0
:1000B0005F0100085F0100085F0100085F010008A0
:1000C0005F0100085F0100085F0100085F01000890
:1000D0005F0100085F0100085F0100085F01000880
:1000E000B51600085F0100085F0100085F01000805
:1000F0005F0100085F0100085F0100085F01000860
:100100005F0100085F0100085F0100085F0100084F
:100110005F0100085F0100085F0100085F0100083F
:100120005F0100085F0100085F0100085F0100082F
:10013000DFF80CD003F0F2FA004800475915000828
:10014000880400200648804706480047FEE7FEE78F
:10015000FEE7FEE7FEE7FEE7FEE7FEE7FEE7FEE777
:1001600047020008310100080CB500200190009002
:100170006C48006840F480306A49086000BF6948F4
:10018000006800F4003000900198401C0190009835
:1001900018B90198B0F5A06FF1D16248006800F479
:1001A000003010B10120009001E000200090009884
:1001B000012843D15C48006840F010005A490860AB
:1001C0000846006820F0030008600846006840F018
:1001D0000200086053484068524948600846406839
:1001E00048600846406840F48060486008464068BF
:1001F00020F47C1048600846406840F4E8104860ED
:100200000846006840F08070086000BF45480068FC
:1002100000F000700028F9D04248406820F0030048
:10022000404948600846406840F00200486000BF0E
:100230003C48406800F00C000828F9D10CBD10B50E
:10024000FFF792FF10BD10B53648006840F001007E
:1002500034490860084640683449084031494860DC
:1002600008460068324908402E4908600846006880
:1002700020F4802008600846406820F4FE004860B2
:100280004FF41F008860FFF7DAFF4FF00060294944
:10029000086010BD10B5002100200022214B5B68D2
:1002A00003F00C0121B1042906D0082928D107E068
:1002B000214B224C236027E01F4B204C236023E07E
:1002C000184B5B6803F47010164B5B6803F48032C4
:1002D000022303EB904022B9194B4343174C236090
:1002E0000DE0104B5B6803F4003323B1144B434320
:1002F000124C236003E0104B4343104C236003E097
:100300000D4B0E4C236000BF00BF064B5B68C3F370
:1003100003130C4CE15C094B1B68CB40074C23607A
:1003200010BD000000100240002002400000FFF855
:10033000FFFFF6FE08ED00E000127A00000000204A
:1003400000093D000400002031490143314A116099
:10035000704770B5002100230F22C47804B32D4CE0
:10036000246804F4E064C4F5E064210AC1F10403E4
:10037000CA40447804FA03F1847814402143090107
:10038000254C0678A155047804F01F050124AC40E3
:1003900005786D11AD0005F1E025C5F8004109E0D3
:1003A000047804F01F050124AC401C4D067876113A
:1003B00045F8264070BD1A4A0A400243154B1B1FE0
:1003C0001A60704739B1134A121D12680243114B6B
:1003D0001B1D1A6006E00F4A121D126882430D4B66
:1003E0001B1D1A607047042808D14FF0E0210969ED
:1003F00041F004014FF0E022116107E04FF0E021ED
:10040000096921F004014FF0E022116170470000FA
:100410000000FA050CED00E000E400E080E100E0FF
:1004200080FFFF1F002044490860091D0860091D66
:100430000860091D086041483F4914310860704751
:1004400000213D498279002A3AD00A4612680368A1
:100450009A430B461A600A1D126803689A430B1DE3
:100460001A60027911440A6803681A430A60324A22
:100470000832126803689A432F4B08331A601A1D1A
:10048000126803689A432C4B0C331A604279102A85
:100490000ED11A1F126803681A43274B08331A60DB
:1004A0001A1D126803681A43234B0C331A600DE0BF
:1004B0002149427911440A6803681A430A6005E039
:1004C000027911440A6803689A430A607047002160
:1004D000016001710C214171002181717047164941
:1004E000103109680143144A103211607047014607
:1004F0000020114A143212680A400AB1012000E0BB
:10050000002070470C4914310860704701460020F4
:100510000022094B1B6803EA0102074B14331B68D6
:100520000B4013B10AB1012000E0002070470249DE
:10053000143108607047000000040140FFFF0F0005
:1005400030B943F2DB028100A1F1C0410A6005E04D
:1005500043F2D2028100A1F1C0410A606FF0704203
:10056000411C8900A1F1C0410A608100A1F1C04194
:10057000C1F80421704710280AD118214FF02042F9
:100580001166402151664FF0FC319166D16610E052
:100590001821F74A116040214FF02042C2F8841020
:1005A0004FF0FC31F24A083211604FF02042C2F89D
:1005B0008C1070471820EE49203108600020090691
:1005C000C1F8A4004FF0FC30E94928310860091D4A
:1005D0000860091D08607047D0E901121143C26824
:1005E0001143026911434269114382691143C2698F
:1005F0001143026A1143426A1143826A1143C26A7B
:100600001143026B114302689200A2F1C0421160D3
:10061000816808290BD101688900A1F1C0410968EE
:1006200041F0400201688900A1F1C0410A60416BBC
:100630000968426B526841EA0211426B926841EAD2
:100640000221426B928941EA0241426B128A41EADD
:100650000251426B127D41EA0261426B9269114381
:100660000268521C9200A2F1C0421160C16AB1F549
:10067000804F1BD1816B0968826B526841EA02117D
:10068000826B926841EA0221826B128A41EA02512E
:10069000826B127D41EA0261826B926911430268AA
:1006A0009200A2F1C042C2F8041107E06FF070425C
:1006B00001688900A1F1C041C1F80421704730B53B
:1006C000002100220023446844F0080485682C437C
:1006D000C5682C4305692C43456944EA452485696E
:1006E00044EA4531C4692468C5696D6844EA052453
:1006F000C5692D8944EA0544C5692D7B44EA056234
:10070000046A2468056A6D6844EA0524056A2D892F
:1007100044EA0544056A2D7B44EA05630468102C0D
:1007200005D14FF020442166A266E36608E0904CB4
:1007300021604FF02044C4F888208D4C0C34236095
:1007400030BD016841F01001426841EA42218268EF
:1007500041EA4231864A20321160C1680968C268A4
:10076000526841EA0221C268128941EA0241C26824
:10077000127B41EA02617E4A2832116001690968F0
:100780000269526841EA02210269128941EA024182
:100790000269127B41EA0261754A2C32116041699B
:1007A00009684269526841EA02214269128941EAB4
:1007B00002414269127B41EA02614FF02042C2F8D5
:1007C000B01070470021016002214160002181606A
:1007D000C160016141618161C16101624FF4805179
:1007E0004162490081620021C16201630F21426BB5
:1007F0001160426B5160FF21426B91600F21426B8F
:10080000D160426B1161426B51610021426B916179
:100810000F21826B1160826B5160FF21826B9160AE
:100820000F21826BD160826B1161826B516100215B
:10083000826B9161704710210160002141608160ED
:10084000C160016141618161FC21C2691160C269BD
:100850005160C2699160C269D160026A1160026A26
:100860005160026A9160026AD160704700210160A4
:1008700041608160FC21C2681160C2685160C26839
:100880009160C268D16002691160026951600269B9
:1008900091600269D16042691160426951604269A8
:1008A00091604269D160704751B18200A2F1C042AB
:1008B000126842F001038200A2F1C042136009E015
:1008C0008200A2F1C04212682A4B1A408300A3F1B1
:1008D000C0431A60704799B1102808D14FF02042E8
:1008E000126E42F004024FF020431A661DE0204AC7
:1008F000126842F004024FF02043C3F8802014E055
:10090000102809D14FF02042126E1A4BDB1E1A40FC
:100910004FF020431A6608E0154A1268154BDB1E9B
:100920001A404FF02043C3F88020704748B1104967
:100930002031096841F004014FF02042C2F8A010B4
:1009400009E00B49203109680A4AD21E11404FF0D4
:100950002042C2F8A0107047B9B110280CD14FF056
:100960002042126E42F040024FF020431A661FE010
:10097000800000A0FEFF0F00724A126842F04002A1
:100980004FF02043C3F8802012E0102808D14FF028
:100990002042126E6C4B1A404FF020431A6607E05B
:1009A000684A1268684B1A404FF02043C3F8802011
:1009B000704701460020102903D14FF02042506FAC
:1009C00002E0604A14321068704710B5F2B1102886
:1009D00007D14FF020435B6E0B434FF0204463661A
:1009E00032E0B0F5807F08D1564B1B1D1B680B43CE
:1009F0004FF02044C4F8843026E0524B24331B6867
:100A00000B434FF02044C4F8A4301DE0102807D158
:100A10004FF020435B6E8B434FF02044636613E03E
:100A2000B0F5807F08D1474B1B1D1B688B434FF0EF
:100A30002044C4F8843007E0424B24331B688B43C6
:100A40004FF02044C4F8A43010BD10B50246002079
:100A50000023102A03D14FF02044636E09E0B2F561
:100A6000807F03D1374C241D236802E0354C2434A9
:100A7000236803EA01040CB1012000E0002010BD4E
:100A8000102807D14FF02042526E8A434FF0204386
:100A90005A6613E0B0F5807F08D12A4A121D126809
:100AA0008A434FF02043C3F8842007E0254A2432CC
:100AB00012688A434FF02043C3F8A420704770B5F2
:100AC00002460020002300240025102A03D14FF005
:100AD0002046736E09E0B2F5807F03D1194E361DB2
:100AE000336802E0174E2436336803EA010403EA50
:100AF000D10514B10DB1012000E0002070BD102817
:100B000008D14FF02042526E22EAD1024FF020432A
:100B10005A6615E0B0F5807F09D10A4A121D1268A5
:100B200022EAD1024FF02043C3F8842008E0054AAE
:100B30002432126822EAD1024FF02043C3F8A420E5
:100B400070470000800000A0BFFF0F0010B50446F2
:100B5000CC48844208D10121042000F02DFB002163
:100B6000042000F029FB46E0C748844208D1012157
:100B7000082000F021FB0021082000F01DFB3AE0D6
:100B8000C248844208D10121102000F015FB002149
:100B9000102000F011FB2EE0BD48844208D1012155
:100BA000202000F009FB0021202000F005FB22E0BE
:100BB000B848844208D10121402000F0FDFA00210C
:100BC000402000F0F9FA16E0B348844208D1012130
:100BD000802000F0F1FA0021802000F0EDFA0AE018
:100BE000AE48844207D10121801500F0E5FA0021CA
:100BF000A01500F0E1FA10BD10B50121084600F083
:100C0000DBFA0021012000F0D7FA10BD2DE9F041F8
:100C1000024600250026002000230024002791F82A
:100C200003C00CF00F0591F803C00CF0100CBCF1E0
:100C3000000F03D091F802C04CEA050591F800C0FE
:100C4000BCF1000F31D0146800202BE04FF0010CF4
:100C50000CFA00F3B1F800C00CEA03069E4220D162
:100C600083004FF00F0C0CFA03F7BC4305FA03FCAA
:100C70004CEA040491F803C0BCF1280F06D14FF0F0
:100C8000010C0CFA00FCC2F814C00AE091F803C091
:100C9000BCF1480F05D14FF0010C0CFA00FCC2F872
:100CA00010C0401C0828D1D31460B1F800C0BCF1BA
:100CB000FF0F34DD546800202EE000F1080C4FF0E7
:100CC000010808FA0CF3B1F800C00CEA03069E42D2
:100CD00021D183004FF00F0C0CFA03F7BC4305FA47
:100CE00003FC4CEA040491F803C0BCF1280F05D1C1
:100CF00000F1080C08FA0CF8C2F8148091F803C04F
:100D0000BCF1480F07D100F1080C4FF0010808FAB8
:100D10000CF8C2F81080401C0828CED35460BDE8FF
:100D2000F0814FF6FF710180022181700421C170B2
:100D300070470246002093680B400BB1012000E091
:100D4000002070470146886880B270470246002044
:100D5000D3680B400BB1012000E000207047014632
:100D6000C86880B2704701617047416170470AB13D
:100D7000016100E041617047C16070474FF480320B
:100D80000A43826181618261826982697047024699
:100D90000020434B18684FF68073184040EA021059
:100DA00008433F4B186070473E49C8617047F0B533
:100DB0000A46002300240021002500F00046B6F179
:100DC000004F02D1364EF16901E0354E7168C0F333
:100DD000034583B200F44016B6F5401F08D121F058
:100DE00070612F4E766826F070662D4F7E6012E09F
:100DF00000F48016B6F5801F06D1032606FA05F426
:100E0000A14341F0706106E0460D360103FA06F693
:100E1000B14341F0706122B1460D360103FA06F686
:100E2000314300F00046B6F1004F02D11C4EF16193
:100E300001E01B4E7160F0BD30B500228B071C0F26
:100E40000F2303FA04F2164B08338C1053F82430A6
:100E50009343134C08348D1044F8253023468C10EE
:100E600053F824308C07240F00FA04F423430C4C6D
:100E700008348D1044F8253030BD0A49DC31086053
:100E80007047000000080140000C014000100140C4
:100E90000014014000180140001C014000200140E6
:100EA0000000014000002042DF48006840F00100DF
:100EB000DD49086008464068DC490840DA49486076
:100EC00008460068DA490840D749086008460068C3
:100ED00020F4802008600846406820F4FE00486046
:100EE0004FF41F0088607047CF49096821F48031B2
:100EF000CD4A11601146096821F480211160B0F5D6
:100F0000803F03D0B0F5802F0ED106E0C6490968B6
:100F100041F48031C44A116007E0C349096841F4D3
:100F2000A021C14A116000E000BF00BF704710B5AA
:100F300001460022002300204A11012A02D1BA4CA6
:100F4000236806E0022A02D1B74C236A01E0B64CBE
:100F5000636A01F01F02012494401C400CB101207F
:100F600000E0002010BD38B50020009000240025CE
:100F700000BF3120FFF7DBFF05460098401C0090C2
:100F80000098B0F5A06F01D0002DF2D03120FFF70E
:100F9000CEFF08B1012400E00024204638BD014600
:100FA0000020A14A106820F0F80040EAC10010605B
:100FB0007047A04908607047024600209A4B586865
:100FC00020F47C1042EA01031843974B58607047A5
:100FD00098490866704701460020934A506820F0FF
:100FE00003000843506070478F48406800F00C00D1
:100FF0007047014600208C4A506820F0F0000843FA
:101000005060704701460020874A506820F4E06035
:1010100008435060704701460020834A506820F41E
:10102000605040EAC1005060704729B17E4A527A50
:1010300002437D4B5A7204E07B4A527A82437A4BD8
:101040005A7270477B49D8310860704701460020CA
:10105000754A506820F440400843506070470021B2
:10106000714A20321170704A82F82010012802D093
:1010700004280AD104E001216B4A2032117005E0F6
:101080000521694A2032117000E000BF00BF70479F
:101090006949086070476449096A0143624A1162FC
:1010A0007047654944390860704730B50021002217
:1010B000002400235C4D6D6805F00C0121B104296A
:1010C00005D0082923D105E05C4D056022E05B4D89
:1010D00005601FE0544D6D6805F47012524D6D6847
:1010E00005F48034022505EB92421CB9544D55435A
:1010F00005600BE04C4D6D6805F400351DB1504D99
:101100005543056002E04D4D5543056002E04B4DEF
:10111000056000BF00BF444D6D6805F0F00109098E
:10112000484D6B5C0568DD4045603F4D6D6805F4DA
:10113000E061090A434D6B5C4568DD4085603A4DCE
:101140006D6805F46051C90A3E4D6B5C4568DD4031
:10115000C560354D6D6805F44041890B3A4D6B5CB7
:10116000C568B5FBF3F5056130BD29B12E4A52695A
:1011700002432D4B5A6104E02B4A526982432A4BA9
:101180005A61704729B1284A92690243264B9A61F5
:1011900004E0254A92698243234B9A61704729B142
:1011A000214AD2690243204BDA6104E01E4AD26927
:1011B00082431D4BDA61704729B11B4AD268024352
:1011C000194BDA6004E0184AD2688243164BDA60A1
:1011D000704729B1144A12690243134B1A6104E0A3
:1011E000114A12698243104B1A6170471249403903
:1011F000086070470F49C86470470B49C871704751
:101200000948406A40F080700749486270470146CB
:101210000020054A92680A400AB1012000E000203F
:101220007047014988727047001002400000FFF8C3
:10123000FFFFF6FE000042428004424200127A00A4
:1012400000093D00140000202400002010B50446D1
:10125000BE48844208D101218014FFF7ADFF002170
:10126000A014FFF7A9FF16E0B948844208D1012174
:101270000014FFF7AEFF00212014FFF7AAFF0AE0D9
:10128000B448844207D10121C013FFF7A2FF002117
:10129000E013FFF79EFF10BD10B50022028802F494
:1012A00041520B884C8823438C882343CC882343AA
:1012B0000C8923434C8923438C892343CC892343C2
:1012C0001A430280838B4FF2FF74234083830B8A7F
:1012D000038210BD2DE9F04F85B005460C464FF056
:1012E000000902274FF000084FF0010B0026B2461C
:1012F000A88B4FF240010840A88302202884B5F84B
:101300001C90A068022801D100BF38E0A08810B965
:101310004FF0010B01E04FF0020B8D48854200D1E8
:1013200000E000BF6846FFF7C0FEDDF800A0E088DF
:10133000B0F5007F0AD14FEA1A2000EB8000400090
:10134000A168B0FBF1F0401D86B20BE04FEA4B10F4
:10135000BAFBF0F000EB80004000A168B0FBF1F0B8
:10136000401D86B20A20B6FBF0F606F00108A6EB97
:101370000800C0F34F074FF6FF7000EA0828022F5D
:1013800001DBFF2F02DD02274FF00008E08840EA72
:10139000080038432884A088A1890843618808434D
:1013A0002188084340F4006040EA0909A5F81C9030
:1013B00005B0BDE8F08F0021018041808180C180AF
:1013C000018141818181C181072101827047002112
:1013D000018041808180C180022181600021818162
:1013E000704721B1028842F04002028004E0028886
:1013F0004FF6BF731A400280704721B1828B42F4CE
:101400008062828304E0828B4FF6FF331A4082832E
:10141000704730B5002400230C110125A540ABB264
:101420001AB185881D43858002E085889D438580AB
:1014300030BD1AB183880B43838002E083888B43DD
:1014400083807047818170470146888970474FF6D5
:10145000FF62914204D0028842F48072028004E06C
:1014600002884FF6FF631A400280704721B18288DC
:1014700042F00402828004E082884FF6FB731A4037
:101480008280704702884FF2FF731A400280028800
:101490000A4302807047018841F4805101807047FF
:1014A00021B1028842F40052028004E002884DF625
:1014B000FF731A400280704702460020012901D0C4
:1014C000108B00E0908A70470146088A7047B1F59A
:1014D000804F04D1028842F48042028004E00288F6
:1014E0004BF6FF731A4002807047024600201389B2
:1014F0000B400BB1012000E000207047CA4302817D
:101500007047F0B50246002000240023002501F0BA
:101510000F070126BE40B4B20B1101269E40B3B2A4
:10152000968806EA03051689264016B10DB10120FA
:1015300000E00020F0BD10B5002201F00F040123EF
:10154000A3409AB2D343038110BD00000030014094
:1015500000380040003C004008B500F037F9012099
:10156000294908600220086000F012FF012000F005
:1015700048FB00204FF4A073F0220146009000F0D9
:1015800036FC01F02DFC01F010FD012080F31088E5
:1015900000BF002080F3108800BF00F0C9F800F001
:1015A000EBF84FF47840002318A20A210090184667
:1015B00000F0E8FD26E01B48007801F091FC0724CC
:1015C00009E02146184801F054FD0021164801F0B9
:1015D00050FD601EC4B2002CF3DC1448124948616F
:1015E000401C88610621104801F043FD00210E488F
:1015F00001F03FFD05210C4801F03BFD00210A48A8
:1016000001F037FDD7E70000140C01404B313A20C0
:101610002042475420506F7765722053656C656394
:1016200074000000280000206800002005008000F1
:10163000704700BFFEE700BFFEE700BFFEE700BF48
:10164000FEE770477047704710B501F0B6FB10BD5C
:1016500010B51020FEF75AFF28B101201D4908706F
:101660001020FEF764FF10BD08B50120FEF74EFF05
:10167000F8B11948006880F0010017490860174860
:101680000078372803DB30201449087004E0134841
:101690000078401C114908704FF4784000230090F6
:1016A0000E4802780A21B42000F04CFE0120FEF71B
:1016B0003EFF08BD10B54FF40050FEF727FF40B1C4
:1016C0000548006880F00200034908604814FEF7EE
:1016D0002EFF10BD600000200C0C014028000020EF
:1016E00008B54FF4C060FEF72FFE06208DF800000D
:1016F00000208DF801008DF8020001208DF8030014
:101700006846FEF726FE08BD08B54FF4C060FEF738
:101710001BFE28208DF8000000208DF8010001201C
:101720008DF802008DF803006846FEF712FE08BD32
:101730000EB501210520FFF725FDFFF7D1FF0120A0
:10174000ADF8080028208DF80B0002A91D48FFF70E
:101750005DFA00210846FFF76FFB01200090002092
:101760008DF8040008208DF8050001208DF8060092
:101770006846FEF765FE0EBD0EB501211120FFF78C
:1017800001FDFFF7C1FF4FF40050ADF8080028201D
:101790008DF80B0002A90C48FFF738FA0D21022042
:1017A000FFF74AFB4FF40050009000208DF8040032
:1017B00008208DF8050001208DF806006846FEF728
:1017C0003FFE0EBD000801400010014008B5012198
:1017D0000820FFF7D7FC0120ADF8000010208DF89D
:1017E000030003208DF8020069460F48FFF70EFA48
:1017F0000220ADF8000069460B48FFF707FA2020E9
:10180000ADF8000069460848FFF700FA01210648D4
:10181000FFF7A9FA02210448FFF7A5FA20210248A0
:10182000FFF7A1FA08BD0000000C014001B502E07D
:101830000098401E009000980028F9D108BD08B516
:1018400001210846FFF79EFC01216020FFF79AFC6A
:1018500003208DF8020018208DF803004CF203706D
:10186000ADF800006946FE48FFF7D0F94FF68070EA
:10187000ADF800006946FB48FFF7C8F903208DF872
:10188000020018208DF803001020ADF80000694612
:10189000F348FFF7BBF92020ADF800006946F04897
:1018A000FFF7B4F901212020FFF76CFC8020ADF890
:1018B00000006946EA48FFF7A9F901212020FFF757
:1018C00061FC4FF40060ADF800006946E448FFF7A2
:1018D0009DF910208DF8030003208DF802000121EE
:1018E0004020FFF74FFC0220ADF800006946DD48BC
:1018F000FFF78CF910208DF8030003208DF802000B
:1019000001212020FFF73EFC4FF48050ADF800008D
:101910006946D348FFF77AF908BD00B597B00121B1
:101920000802FFF722FC022001900020029005200F
:10193000039000200490059006904FF0805007908F
:1019400000200890099008200A9010200B90002099
:101950000C900E900F9010904FF48050119000203A
:1019600012901390149001A81590169008A8FEF7F5
:1019700033FE01210020FEF797FF17B000BD10B520
:10198000CF2001F0E3FE002001F0E4FE812001F011
:10199000E1FE302001F0DEFEED2001F0D7FE6420F4
:1019A00001F0D8FE032001F0D5FE122001F0D2FE96
:1019B000812001F0CFFEE82001F0C8FE852001F073
:1019C000C9FE102001F0C6FE782001F0C3FECB2036
:1019D00001F0BCFE392001F0BDFE2C2001F0BAFE62
:1019E000002001F0B7FE342001F0B4FE022001F027
:1019F000B1FEF72001F0AAFE202001F0ABFEEA20A4
:101A000001F0A4FE002001F0A5FE002001F0A2FEDE
:101A1000B12001F09BFE002001F09CFE1B2001F094
:101A200099FEB62001F092FE0A2001F093FEA2205A
:101A300001F090FEC02001F089FE352001F08AFE01
:101A4000C12001F083FE112001F084FEC52001F0C9
:101A50007DFE452001F07EFE452001F07BFEC72083
:101A600001F074FEA22001F075FEF22001F06EFE7E
:101A7000002001F06FFE262001F068FE012001F039
:101A800069FEE02001F062FE0F2001F063FE2620D7
:101A900001F060FE242001F05DFE0B2001F05AFEF3
:101AA0000E2001F057FE092001F054FE542001F0F1
:101AB00051FEA82001F04EFE462001F04BFE0C2006
:101AC00001F048FE172001F045FE092001F042FE1A
:101AD0000F2001F03FFE072001F03CFE002001F046
:101AE00039FEE12001F032FE002001F033FE192022
:101AF00001F030FE1B2001F02DFE042001F02AFE33
:101B0000102001F027FE072001F024FE2A2001F01A
:101B100021FE472001F01EFE392001F01BFE0320AC
:101B200001F018FE062001F015FE062001F012FE5D
:101B3000302001F00FFE382001F00CFE0F2001F0E4
:101B400009FE362001F002FEC82001F003FE2A2023
:101B500001F0FCFD002001F0FDFD002001F0FAFD88
:101B6000002001F0F7FDEF2001F0F4FD2B2001F043
:101B7000EDFD002001F0EEFD002001F0EBFD012065
:101B800001F0E8FD3F2001F0E5FD3A2001F0DEFD27
:101B9000552001F0DFFD112001F0D8FD3248FFF79C
:101BA00045FE292001F0D2FD10BD10B502212D48BF
:101BB000FFF7DBF82C48FFF739FE02212948FFF731
:101BC000D2F82948FFF732FE10BD10B504462CB1FB
:101BD0004FF480512248FFF7C8F804E04FF48051D9
:101BE0001F48FFF7C0F810BD10B5FFF728FEFFF73C
:101BF00094FE0120FFF7E9FFFFF7D7FFFFF7BFFED5
:101C000010BD10B50446012C06D0022C31D0032C97
:101C100054D0042C2CD176E0362001F097FDC8205A
:101C200001F098FD2A2001F091FD002001F092FDC5
:101C3000002001F08FFD002001F08CFDEF2001F06D
:101C400089FD2B2001F082FD002001F083FD0020A2
:101C500001F080FD012001F07DFD3F2006E0000045
:101C60000014014000180140FCBF020001F072FDA9
:101C70006EE0362001F06AFD682001F06BFD2A203D
:101C800001F064FD002001F065FD002001F062FD1F
:101C9000012001F05FFD3F2001F05CFD2B2001F0F1
:101CA00055FD002001F056FD002001F053FD0020FD
:101CB00001F050FDEF2001F04DFD49E0362001F02C
:101CC00045FD282001F046FD2A2001F03FFD0020BF
:101CD00001F040FD002001F03DFD012001F03AFD42
:101CE0003F2001F037FD2B2001F030FD002001F0F6
:101CF00031FD002001F02EFD002001F02BFDEF2032
:101D000001F028FD24E0362001F020FD482001F0FC
:101D100021FD2A2001F01AFD002001F01BFD00200A
:101D200001F018FD002001F015FDEF2001F012FD7B
:101D30002B2001F00BFD002001F00CFD002001F034
:101D400009FD012001F006FD3F2001F003FD00BF69
:101D500000BF2C2001F0FAFC10BD2DE9F041044633
:101D60000D4616461F462A2001F0F0FC201201F015
:101D7000F1FCE0B201F0EEFCA119491EC1F30F2005
:101D800001F0E8FCA119491EC8B201F0E3FC2B20C8
:101D900001F0DCFC281201F0DDFCE8B201F0DAFC15
:101DA000E919491EC1F30F2001F0D4FCE919491EBD
:101DB000C8B201F0CFFCBDE8F08170B504460D4615
:101DC00001231A4629462046FFF7C7FF70BD70B5AC
:101DD00004460D4600262C2001F0B8FC00BF03E0AD
:101DE000284601F0B7FC761CA642F9D370BD2DE958
:101DF000F04106460F4614461D46DDF818802B4676
:101E0000224639463046FFF7A8FF04FB05F041465D
:101E1000FFF7DDFFBDE8F08170B506460C461546BC
:101E2000F02E0ADAB4F5A07F07DA21463046FFF734
:101E3000C4FF29460120FFF7CAFF70BD70B500241A
:101E4000002500262E2001F081FC01F079FC0446DB
:101E500001F076FC044601F073FC064601F070FCCC
:101E60000546E012C002A91240EA411040EAE6200D
:101E700070BD70B504460D4629462046FFF79DFF0C
:101E8000FFF7DCFF0646304670BD2DE9FF4F85B0F9
:101E900081468A464FF0000B002001900798A0EB86
:101EA00009050898A0EB0A06CDF80C90CDF808A01B
:101EB000002D01DD012705E00DB9002702E04FF0FC
:101EC000FF376D42002E02DD4FF0010806E016B923
:101ED0004FF0000802E04FF0FF387642B54201DDD6
:101EE0002C4600E03446002004901EE0129ADDE902
:101EF0000210FFF791FFAB44019830440190A345D5
:101F000005DDABEB040B0398384480B203900198D5
:101F1000A04206DD0198001B01900298404480B267
:101F200002900498401C80B20490611C049888427E
:101F3000DCDD09B0BDE8F08F2DE9F84304460D461D
:101F400016461F46DDE90889B9F1000F08D03B4667
:101F5000324629462046CDF80080FFF748FF2FE0A3
:101F6000A019401E82B22B4629462046CDF800809B
:101F7000FFF78BFFE819401E83B2A019401E82B202
:101F8000E819401E81B22046CDF80080FFF77DFFA2
:101F9000E819401E83B2224629462046CDF800802B
:101FA000FFF773FFE919491E8BB2A119491E8AB2C6
:101FB000A119491E88B22946CDF80080FFF765FFB8
:101FC000BDE8F8832DE9F05F05460E4691469B4635
:101FD00000240FFA89F70320A0EB49000FFA80FADA
:101FE00097E00A98002848D0A04643E006EB080294
:101FF00091B22A1990B25A46FFF70EFF06EB08027B
:1020000091B22A1B90B25A46FFF706FF321991B2DD
:10201000A5EB080290B25A46FFF7FEFE321B91B2C2
:10202000A5EB080290B25A46FFF7F6FEA6EB0802AF
:1020300091B22A1B90B25A46FFF7EEFEA6EB0802B9
:1020400091B22A1990B25A46FFF7E6FE321B91B2BE
:1020500005EB080290B25A46FFF7DEFE321991B244
:1020600005EB080290B25A46FFF7D6FE08F10100D0
:102070000FFA80F8B845B9DD37E0F21991B22A19A4
:1020800090B25A46FFF7C8FEF21991B22A1B90B2DD
:102090005A46FFF7C1FE321991B2EA1B90B25A4676
:1020A000FFF7BAFE321B91B2EA1B90B25A46FFF715
:1020B000B3FEF21B91B22A1B90B25A46FFF7ACFE58
:1020C000F21B91B22A1990B25A46FFF7A5FE321BB5
:1020D00091B2EA1990B25A46FFF79EFE321991B2B8
:1020E000EA1990B25A46FFF797FE601C04B2BAF1A3
:1020F000000F05DAA000801D50440FFA80FA07E0B7
:10210000E01B80000A3050440FFA80FA781E07B2B4
:1021100000BFBC427FF765AFBDE8F09F2DE9F05FDF
:1021200081468A4615461E46A5F1200000F0FF0BA9
:102130001023082251464846FFF70FFE2C2001F0DD
:1021400005FB00241AE0914800EB0B10075D4FF0EF
:1021500000080EE007F0010018B10A9801F0FAFA41
:1021600002E0304601F0F6FA7F1008F1010000F0BD
:10217000FF08B8F1080FEDDB601CC4B2102CE2DBE5
:10218000BDE8F09F2DE9F84305460E4614461F466C
:10219000DDF820801AE028460830F02803DD00250D
:1021A00006F1100086B230461030B0F5A07F01DD98
:1021B00000250026CDF8008022783B46314628468F
:1021C000FFF7ACFF641C05F1080085B220780028F9
:1021D000E1D1BDE8F8832DE9F04F89B0804689460A
:1021E00093461E46DDF848A010231A46494640464D
:1021F000FFF7B3FD2C2001F0A9FA002422E001A88A
:1022000010F814504FF6FF7000EA0525012000EB8E
:10221000440001A9085C054300270FE005F40040D5
:1022200018B1504601F096FA02E0304601F092FAF9
:102230004FF6FF7000EA4505781CC7B2102FEDDBA2
:10224000601CC4B2102CDADB09B0BDE8F08F2DE9B8
:10225000F84305460E4614469846DDF820901FE0E8
:1022600028461030F02803DD002506F1100086B264
:1022700030461030B0F5A07F01DD0025002627880C
:10228000380200EB272087B243463A4631462846BB
:10229000CDF80090FFF79FFF05F1100085B2A41C58
:1022A00020780028DCD1BDE8F8832DE9F843054605
:1022B0000E4614469946DDF820803EE020787E28C0
:1022C0001BDC28460830F02803DD002506F110004D
:1022D00086B230461030B0F5A07F01DD0025002623
:1022E000CDF8008022784B4631462846FFF716FF8E
:1022F00005F1080085B2641C1FE028461030F02864
:1023000003DD002506F1100086B230461030B0F52E
:10231000A07F01DD002500262788380200EB27205A
:1023200087B24B463A4631462846CDF80080FFF743
:1023300052FF05F1100085B2A41C20780028BDD101
:10234000BDE8F8832DE9F84304460D4616461F46BE
:10235000DDF8208020460830F02803DD002405F158
:10236000100085B228461030B0F5A07F01DD0024B2
:1023700000253B46324629462046CDF80080FFF72F
:10238000CDFE04F1080084B2BDE8F88306390008E8
:1023900010B5FFF729FC00F072F810BD08B54FF436
:1023A000C060FDF7D1FF0A208DF8000000208DF8F5
:1023B00001008DF8020001208DF803006846FDF74A
:1023C000C8FF08BD0EB501214120FEF7DBFEFFF777
:1023D000E5FF1020ADF8080048208DF80B0002A999
:1023E000FE48FEF713FC04210846FEF725FD1020E9
:1023F000009000208DF804000C208DF805000120CD
:102400008DF806006846FEF71BF80EBD08B50121E1
:102410006020FEF7B7FE0120ADF800008DF8020045
:1024200010208DF803006946EC48FEF7EFFB04200E
:10243000ADF800006946E948FEF7E8FB0820ADF872
:10244000000001208DF8020048208DF80300694645
:10245000E248FEF7DBFB4FF40050ADF8000001202E
:102460008DF8020010208DF803006946DC48FEF765
:10247000CDFB4FF40051DA48FEF777FC08BD10B5EC
:10248000FFF7C4FFFFF79EFF10BD01B5002007E076
:102490000C2100BF0A1EA1F10103D9B2FAD1401CE0
:1024A00000998842F4D308BD70B505460421CB4895
:1024B000FEF75BFC0121C948FEF757FC00241FE032
:1024C000C4F1070045FA00F000F0010020B104213A
:1024D000C248FEF748FC03E00421C048FEF745FC73
:1024E0000520FFF7D2FF0121BC48FEF73CFC052088
:1024F000FFF7CBFF0121B948FEF737FC601CC4B2DF
:10250000082CDDDB70BD70B500250421B348FEF753
:102510002CFC0121B148FEF726FC002414E0012127
:10252000AE48FEF722FC0821AC48FEF702FC064646
:10253000C4F10B0006FA00F0284385B20121A74838
:10254000FEF711FC601CC4B20C2CE8DB284670BD01
:1025500010B504462046FFF7A7FFFFF7D4FF10BDD4
:102560002DE9F04104460D469020FFF7F1FF06B239
:102570000120FFF78AFFD020FFF7EAFF07B226808D
:102580002F80BDE8F0812DE9F0478CB0064600258C
:102590002821684600F035FE00BF0AA90BA8FFF706
:1025A000DFFFBDF92C002DF81500BDF9281005A896
:1025B00020F81510681CC5B210218848FEF7B9FB39
:1025C00008B90A2DE9DB10218448FEF7B2FB10B1EF
:1025D0000020844908700A2D7BD1BDF90070B846EF
:1025E000BDF91490CA4601240EE03DF91400B8422A
:1025F00002DA3DF9147005E03DF91400404501DDB3
:102600003DF91480601CC4B20A2CEEDB012412E0F8
:1026100005A830F91400484503DA05A830F91490EC
:1026200007E005A830F91400504502DD05A830F98F
:1026300014A0601CC4B20A2CEADBBDF90000BDF98D
:1026400002100844BDF904100844BDF906100844FE
:10265000BDF908100844BDF90A100844BDF90C1072
:102660000844BDF90E100844BDF910100844BDF926
:1026700012100844C01BA0EB0800C0F3CF0030804C
:10268000BDF91410BDF916000144BDF9180001444C
:10269000BDF91A000144BDF91C000144BDF91E003A
:1026A0000144BDF920000144BDF922000144BDF9F7
:1026B00024000144BDF926000844A0EB0900A0EB6A
:1026C0000A00C0F3CF00708001200CB0BDE8F08795
:1026D000FFE70020F9E72DE9F04705460C461646CE
:1026E0004FF0010921882289891AE38862899A1AA0
:1026F0005143A2882389D31A67886289BA1A03FBD7
:10270000121000F018FFC6E90C0100221346D6E9AA
:102710000C71384600F046FF02D14FF0000990E0FE
:1027200029882A89891AE38862899A1A5143AA88D2
:102730002B89D31A67886289BA1A03FB121000F03A
:10274000FAFEC6E9000121882289891AAA882B8904
:10275000D21A51432A88D21AA3882789DB1B02FB8D
:10276000131000F0E8FEC6E902012189AA8851434E
:10277000A2882B8902FB13116288514322885A4395
:1027800023892F8803FB1723E28803FB0212A18809
:1027900079432388AF8803FB1713618903FB01206A
:1027A00000F0C9FEC6E904016A886989511AE38804
:1027B00062899A1A5143EB886A899B1A67886289F1
:1027C000BA1A03FB121000F0B6FEC6E90601218812
:1027D0002289891AEB886A899A1A05E00018014053
:1027E000001401406000002051436B886A899A1AE6
:1027F000A3882789DB1B02FB131000F09CFEC6E9AF
:1028000008012189EA885143A3886A8903FB1211D0
:102810006288514322886B895A4323896F8803FB5E
:102820001723E28803FB0213A18879432788EA88EB
:1028300007FB1212618902FB013000F07CFEC6E941
:102840000A014846BDE8F08738B504460D464FF406
:102850007840A4F10A01009088B20123142229468D
:10286000FFF7C5FA4FF478400090A5F10A0081B255
:10287000142301222046FFF7BAFA38BD2DE9F04FA4
:10288000A7B04FF00009CA4600202390229083464B
:102890004FF4A074F025A010ADF87800A810ADF8A2
:1028A0007A00BDF87800ADF87C0005EB450081109A
:1028B0001EA8C18004EB44008010ADF880001EA863
:1028C000C1884181BDF88000ADF88400BDF87A1060
:1028D0001EA8C1810220FFF794F9002640E00020E5
:1028E0002B46224601460090FFF781FA0FF2DC3BAF
:1028F000584600F091FCC01FA4EBC000C0F34F0786
:102900004FF47840691000235A4600903846FFF78C
:1029100039FC721CF3A124A800F022FF4FF4784088
:102920001022C2EB650291B200906010002324AA2D
:10293000FFF728FCEC48FFF7A8FD1EAA02EB860271
:1029400051881EAA32F82600FFF77EFF00BF1AA9A1
:1029500001EB8600FFF717FE0028F8D0701CC6B206
:10296000042EBCDB0CAA1AA91EA8FFF7B4FE002295
:102970001346DDE91871384600F014FE00D10DE170
:102980001AA9C88900F0E8FDCDE90001DDE90E7360
:102990003A4600F0EFFCCDE90401BDF8740000F008
:1029A000DBFDCDE90001DDE90C733A4600F0E2FC05
:1029B000CDE90201DDE9042300F035FCCDE9060193
:1029C000DDE910733A4600F02EFCCDE90801DDE99F
:1029D00018733A4600F040FDCDE90A0100F0C9FD48
:1029E0001FFA80F91AA9C88900F0B6FDCDE90001E7
:1029F000DDE914733A4600F0BDFCCDE90401BDF8F1
:102A0000740000F0A9FDCDE90001DDE912733A463A
:102A100000F0B0FCCDE90201DDE9042300F003FC85
:102A2000CDE90601DDE916733A4600F0FCFBCDE97D
:102A30000801DDE918733A4600F00EFDCDE90A0100
:102A400000F097FD1FFA80FABDF88400484504DACB
:102A5000BDF88400A9EB000003E0BDF88400A0EB02
:102A6000090080B223901EA8C089504504DA1EA830
:102A7000C089AAEB000003E01EA8C089A0EB0A00F1
:102A800080B2229023980A2802DC22980A2800DDCE
:102A900084E00022954BDDE90C71384600F06AFCB9
:102AA000CDE90A01DDE918733A4600F0D5FC904AF9
:102AB00003C200228D4BDDE90E71384600F05AFC4E
:102AC000CDE90A01DDE918733A4600F0C5FC884AF1
:102AD000C2E902010022854BDDE91071384600F0A1
:102AE00049FCCDE90A01DDE918733A4600F0B4FC6F
:102AF0007F4AC2E9040100227C4BDDE912713846AD
:102B000000F038FCCDE90A01DDE918733A4600F01F
:102B1000A3FC774AC2E906010022744BDDE9147177
:102B2000384600F027FCCDE90A01DDE918733A4682
:102B300000F092FC6E4AC2E9080100226B4BDDE90D
:102B40001671384600F016FCCDE90A01DDE918736C
:102B50003A4600F081FC664AC2E90A0100202B4691
:102B6000224601460090FFF742F90FF2881B5846B3
:102B700000F052FBA4EBC000C0F34F074FF47840C5
:102B8000691000235A4600903846FFF7FBFA5E486A
:102B9000FFF77BFC012027B0BDE8F08F00202B461B
:102BA000224601460090FFF722F90FF2601B5846BB
:102BB00000F032FBA4EBC000C0F34F074FF47840A5
:102BC000691000235A4600903846FFF7DBFA0FF2EF
:102BD0004C1B584600F020FBA4EBC000C0F34F078D
:102BE0004FF478400090102000EB650100235A4616
:102BF0003846FFF7C7FA4C48FFF747FC0020CAE702
:102C00002DE9F04F89B081460C460120079006A8B7
:102C1000FFF7B9FC002852D0BDF81A0000F09CFC68
:102C20000546D4E902733A4600F0A4FB82468B467F
:102C3000BDF8180000F090FC0746D4E900532A467E
:102C400000F098FB52465B46CDE9000100F0EBFA3C
:102C5000CDE90201D4E904532A4600F0E4FACDE9B3
:102C6000040100F086FCA9F80000BDF81A0000F08D
:102C700073FC0746D4E908532A4600F07BFB8246E2
:102C80008B46BDF8180000F067FC0746D4E90653F0
:102C90002A4600F06FFB52465B46CDE9000100F08A
:102CA000C2FACDE90201D4E90A532A4600F0BBFA80
:102CB000CDE9040100F05DFCA9F8020001E000206C
:102CC0000790079809B0BDE8F08F0000546F756356
:102CD000682043616C696272617465202E2E2E2E0D
:102CE0002E2E000025640000A08601000000F03FA9
:102CF0003000002043616C69627261746520537515
:102D00006363656400000000400D030043616C696B
:102D10006272617465206661696C0000747279206A
:102D2000616761696E00000040420F0030B52748BE
:102D30000068274AB0FBF2F1B1F1807F01D3012096
:102D40001DE021F07F40401E4FF0E02250615017FF
:102D50000F22002807DA13071D0E1E4B00F00F0488
:102D6000241F1D5503E013071C0E1B4B1C5400BFF2
:102D700000204FF0E022906107201061002008B190
:102D800000BFFEE74FF0E020006920F001004FF0A7
:102D9000E021086130BD01B51049009808604FF08E
:102DA000E020006940F001004FF0E021086100BF21
:102DB0000A4800680028FBD108BD0848006820B117
:102DC00006480068401E0549086070470000002062
:102DD00040420F0018ED00E000E400E06400002035
:102DE00000B587B001210803FEF7CCF901210820C6
:102DF000FEF7C8F94FF48070ADF8040003208DF899
:102E0000060010208DF8070001A95448FDF7FEFECA
:102E100001210420FEF7B6F92020ADF804001820A7
:102E20008DF8070001A94E48FDF7F0FE01210420AE
:102E3000FEF7A8F98020ADF8040001A94848FDF785
:102E4000E5FE01210420FEF79DF94020ADF80400C5
:102E500001A94348FDF7DAFE4FF480713F48FDF7C2
:102E600082FF0020ADF808004FF48270ADF80A0030
:102E70004FF40060ADF80C000020ADF80E0001200A
:102E8000ADF810004002ADF812000820ADF81400B3
:102E90000020ADF816000720ADF8180002A931484F
:102EA000FEF7FAF901212F48FEF79BFA07B000BDA3
:102EB00010B5044600BF02212A48FEF716FB002881
:102EC000F9D021462748FEF7BDFA00BF0121254869
:102ED000FEF70BFB0028F9D02248FEF7B5FA10BD2B
:102EE00010B504464FF480711C48FDF73EFFA4F175
:102EF0003000082825D2DFE800F004080C10141870
:102F00001C200020FFF7D4FF20E00120FFF7D0FFB6
:102F10001CE00220FFF7CCFF18E00320FFF7C8FFFA
:102F200014E00420FFF7C4FF10E00520FFF7C0FF06
:102F30000CE00620FFF7BCFF08E00720FFF7B8FF12
:102F400004E041F20100FFF7B3FF00BF00BF4FF400
:102F500080710248FDF707FF10BD0000000C014022
:102F6000000801400030014000209C490860486092
:102F70008860C860086148618861C86198480860D5
:102F800001204860974888604320C86096480861DF
:102F90009648486140F2263088610720C861704732
:102FA00000E0401E0028FCDC704708B5012110201D
:102FB000FEF7E8F84FF40070ADF8000003208DF83C
:102FC000020010208DF8030069468948FDF71EFEB7
:102FD00001211020FEF7D6F84FF40060ADF8000094
:102FE00010208DF8030069468148FDF70FFE01218E
:102FF0001020FEF7C7F84FF48060ADF800001020F5
:103000008DF8030069467A48FDF700FE0121102083
:10301000FEF7B8F84FF48050ADF8000010208DF89E
:10302000030069467248FDF7F1FD01211020FEF70B
:10303000A9F84FF48070ADF8000004208DF803006B
:1030400069466B48FDF7E2FD07206449C861062028
:103050008861052048616448803008614320C86069
:1030600048F20A008860012048604FF4960008602A
:1030700008BD2DE9F04105460E464FF400715C484D
:10308000FDF771FE4FF400615948FDF76EFE4FF4F5
:1030900000715748FDF769FE55F82640002720E0EB
:1030A00004F0004028B14FF480615148FDF75BFE09
:1030B00004E04FF480614E48FDF757FE0220FFF711
:1030C0006FFF4FF400614A48FDF74DFE6400012098
:1030D000FFF766FF4FF400614548FDF746FE781C98
:1030E000C7B21F2FDCDB04F0004028B14FF4806131
:1030F0003F48FDF738FE04E04FF480613C48FDF79F
:1031000034FE4FF400613A48FDF72DFE0120FFF731
:1031100047FF4FF400713648FDF725FE0220FFF708
:103120003FFF4FF400613248FDF71FFEBDE8F0811C
:1031300070B500244FF480512D48FDF716FE4FF472
:1031400000612B48FDF711FE4FF400712848FDF790
:103150000AFE0220FFF724FF4FF480512448FDF7B8
:1031600002FE4FF480712248FDF7E3FD0443640042
:103170000220FFF715FF4FF400611D48FDF7F3FD36
:103180004FF480511A48FDF7F0FD0220FFF708FFC9
:10319000012515E04FF400611548FDF7E6FD4FF4F9
:1031A00080711348FDF7C5FD044364004FF40061CE
:1031B0000F48FDF7D8FD0220FFF7F2FE681CC5B2EC
:1031C000252DE7DB4FF400610948FDF7CEFD4FF4F4
:1031D00000710748FDF7C9FD204670BD680000205A
:1031E00000002281A28F400084001800BD1E48000C
:1031F00000100140D2B201E000F8012B491EFBD2C1
:1032000070470022F6E710B513460A4604461946F1
:10321000FFF7F0FF204610BD421C10F8011B0029EB
:10322000FBD1801A70472DE9FE4F804681EA0300EA
:10323000C00F0C46009021F0004123F00045B8EB90
:103240000200A94105D24046214690461C460B4645
:10325000024623F00040104347D0270DC7F30A0071
:10326000C3F30A510290401A019040286BDAC3F36D
:10327000130040F4801B0098924620B10023D2EB4B
:10328000030A63EB0B0B01985946C0F1400250460C
:1032900000F0B6F906460D4650465946019A00F030
:1032A000CEF910EB08006141002487EA115284EA4C
:1032B000E7731A4340D0009A62B3019A012A4FEA99
:1032C000075215DC001B61EB02014FF0004202EADD
:1032D0000752CDE90042001C41F5801132462B46D1
:1032E00000F0CEF903B0BDE8F08F40462146F9E783
:1032F000001B61EB0201001C41F5801300185B41CB
:103300002018A2F5001747EB030140EAD570B61963
:103310006D4111E06D084FEA360645EAC0754FEA87
:103320000752001B61EB0201001C41F580114908A6
:103330004FEA30000019514132462B4603B0BDE838
:10334000F04F00F08EB90098012240000023D0EB2E
:10335000020263EBE073009821464FEAE074B8EB99
:10336000000061EB0401E9E783F000435BE781F0D3
:10337000004158E72DE9FE4F81EA030404F00044C0
:1033800021F0004100944FF0000B23F0004350EA7D
:1033900001045ED052EA03045BD0C3F30A54C1F3C4
:1033A0000A552C44A4F2F3340194A0FB0254C1F357
:1033B000130141F48011C3F3130343F4801301FBA1
:1033C000024400FB034E840A970A44EA815447EA08
:1033D0008357A4FB076802958D0A05FB07854FEA12
:1033E000932C04FB0C542705029D4FEA065847EA2C
:1033F0001637B5EB08056EEB070C870E920E47EA01
:10340000811742EA8312A7FB0201B6EB0B0164EBC2
:1034100000042B0D43EA0C335E1844EB1C50DA46D3
:103420005146E7FB0201C5F313044FEA0B3343EAAD
:1034300014534FEA0432019C43EA0603A4F10C043E
:103440000294009CCDE900B400F01AF903B0BDE885
:10345000F08F00200146F9E72DE9F04D81EA0304E1
:1034600004F0004B21F0004514464FF0000A23F011
:10347000004150EA050220D054EA01021DD0C5F3F4
:103480000A570246C5F31303C1F31300C1F30A56EA
:1034900040F4801543F48013A7EB0608101BD646B2
:1034A00008F2FD3873EB050002D308F1010801E0D2
:1034B00092185B41B8F1000F03DA00200146BDE825
:1034C000F08D00204FF48011064684460EE0171B55
:1034D00073EB050705D3121B63EB050306434CEAA8
:1034E000010C49084FEA300092185B4150EA01078D
:1034F000EDD152EA030012D082EA040083EA05010A
:10350000084305D0101BAB4106D20122002306E080
:1035100000224FF0004302E06FF0010253101AEB5B
:1035200006004CEB085110EB0A0041EB0B01BDE823
:10353000F04D00F096B80EB5C10F80EAE070084477
:10354000CA07002140F233438DE80E000A460B46BD
:1035500000F096F803B000BD0EB540F23341029181
:103560000021CDE900110A460B4600F089F803B0AE
:1035700000BDC1F30A5210B5C1F3130140F2FF338D
:1035800041F480119A4201DA002010BD40F2334329
:103590009A42A2F2334203DC524200F040F810BDDE
:1035A000904010BD30B5041E71F1000404DB4FF0F3
:1035B0000044404264EB0101141E73F1000405DB7A
:1035C0001C464FF00043524263EB04038B4208BF9A
:1035D000824230BD30B50B46014600202022012436
:1035E00009E021FA02F59D4205D303FA02F5491BD1
:1035F00004FA02F52844151EA2F10102F1DC30BDE7
:10360000202A04DB203A00FA02F1002070479140A2
:10361000C2F1200320FA03F3194390407047202A97
:1036200004DB203A21FA02F00021704721FA02F36C
:10363000D040C2F120029140084319467047202A29
:1036400006DBCB17203A41FA02F043EAE07306E0CA
:1036500041FA02F3D040C2F12002914008431946DA
:10366000704710B5141E73F1000408DA401C41F1D4
:10367000000192185B411A4301D120F0010010BDF6
:103680002DE9F04D92469B4611B1B1FA81F202E06C
:10369000B0FA80F220329046FFF7B2FF04460F46A0
:1036A00040EA0A0041EA0B0153465A46084313D048
:1036B000114653EA010019D0C8F140025046FFF705
:1036C000AEFF05460E46504659464246FFF798FF64
:1036D000084305D0012004E020463946BDE8F08DBE
:1036E0000020054346EAE0762C4337430A986305F9
:1036F000E40AA0EB08000022FD0A44EA47540A301D
:1037000002D500200146E9E7010510196941DDE90C
:10371000084500196941BDE8F04DA2E7064C074D88
:1037200006E0E06840F0010394E807009847103491
:10373000AC42F6D3FCF700FDF83E0008183F000845
:103740000148008870470000000002604FF0C0414F
:10375000088070470149088070470000000002603F
:103760000FB4084B10B504A902AA039800F01CF886
:10377000044602A9002000F0C1F8204610BC5DF804
:1037800014FB0000FD38000802E008C8121F08C141
:10379000002AFAD170477047002001E001C1121FD2
:1037A000002AFBD1704700002DE9FF4F89B09B46EE
:1037B0000446002506E025280BD05A460B99904771
:1037C000641C6D1C20780028F5D10DB02846BDE89A
:1037D000F08F0027B8460122474900E0074314F85C
:1037E000013F203B02FA03F00842F7D120782E284F
:1037F00019D114F8010F47F004072A280ED06FF0F2
:103800002F022078A0F1300109290CD808EB88019B
:1038100002EB410100EB0108641CF2E70A98641C0A
:1038200050F8048B0A9020780028CED0642808D065
:10383000692806D075281ED05A460B9990476D1CF2
:1038400058E00A994FF00A0901C90A91002802DAE2
:1038500040422D2102E0390504D52B218DF820109E
:10386000012103E0F90704D02021F7E78A4608AEDA
:103870000DE00021FAE70A994FF00A0901C90A91FF
:10388000F7E74946FFF7A6FE303106F8011D00288C
:10389000F7D1ADEB060000F12009780701D44FF015
:1038A0000108C84502DDA8EB090000E000208046C1
:1038B000002706E008A85A46C05D0B9990476D1C8A
:1038C0007F1C5745F6DB04E030205A460B999047A1
:1038D0006D1CB8F10001A8F10108F5DC05E016F84F
:1038E000010B5A460B9990476D1CB9F10001A9F1E3
:1038F0000109F4DC641C65E7092801000A68531C0F
:103900000B60107070470000000000000000000015
:10391000000000000000000000183C3C3C181800AB
:103920001818000000000000006666660000000035
:103930000000000000000000006C6CFE6C6C6CFE6F
:103940006C6C000000000018183C66060C18306013
:10395000663C1818000000000E1B5B6E30180C76D9
:10396000DAD8700000000000001C36361C06F6662F
:1039700066DC0000000000000018181800000000BD
:103980000000000000000000003018180C0C0C0CA7
:103990000C18183000000000000C181830303030BF
:1039A0003018180C000000000000006C38FE386C65
:1039B000000000000000000000000018187E181829
:1039C00000000000000000000000000000000000F7
:1039D000383830180000000000000000007E0000B1
:1039E00000000000000000000000000000000000D7
:1039F0003838000000000000006060303018180CFB
:103A00000C060600000000000078CCECECCCDCDCFE
:103A1000CC780000000000000030383E30303030FC
:103A20003030000000000000003C66666030180C7A
:103A3000067E000000000000003C6666603860669C
:103A4000663C000000000000000C0C6C6C6C66FE14
:103A50006060000000000000007E0606063E606018
:103A6000301E0000000000000038180C3E6666663C
:103A7000663C000000000000007E60303018180C2A
:103A80000C0C000000000000003C66666E3C766690
:103A9000663C000000000000003C666666667C3004
:103AA000181C000000000000000000383800000072
:103AB0003838000000000000000000383800000026
:103AC0003838301800000000006030180C060C1860
:103AD0003060000000000000000000007E007E005A
:103AE000000000000000000000060C1830603018D4
:103AF0000C06000000000000003C6666301818004C
:103B00001818000000000000007EC3C3F3DBDBF3E5
:103B100003FE00000000000000183C6666667E663A
:103B20006666000000000000003E6666663E66664F
:103B3000663E000000000000003C66660606066661
:103B4000663C000000000000001E36666666666681
:103B5000361E000000000000007E0606063E060637
:103B6000067E000000000000007E0606063E0606F7
:103B70000606000000000000003C66660606766649
:103B8000667C00000000000000666666667E666671
:103B90006666000000000000003C1818181818188D
:103BA000183C00000000000000606060606060661B
:103BB000663C00000000000000666636361E3636A1
:103BC00066660000000000000006060606060606FF
:103BD000067E00000000000000C6C6EED6D6D6C69F
:103BE000C6C600000000000000C6C6CEDEF6E6C66F
:103BF000C6C6000000000000003C66666666666699
:103C0000663C000000000000003E6666663E060658
:103C10000606000000000000003C666666666666F8
:103C2000663C306000000000003E6666663E366618
:103C30006666000000000000003C66060C1830605C
:103C4000663C000000000000007E181818181818C4
:103C5000181800000000000000666666666666666A
:103C6000663C0000000000000066666666666666E8
:103C70003C1800000000000000C6C6C6D6D6D66CB0
:103C80006C6C0000000000000066662C181834669A
:103C9000666600000000000000666666663C181854
:103CA0001818000000000000007E606030180C064C
:103CB000067E000000000000003C0C0C0C0C0C0CFC
:103CC0000C0C0C0C3C0000000006060C0C18183004
:103CD0003060600000000000003C30303030303098
:103CE000303030303C0000183C660000000000001E
:103CF00000000000000000000000000000000000C4
:103D000000000000FF00001C183000000000000050
:103D100000000000000000000000003C60607C66C5
:103D2000667C0000000000000006063E66666666CF
:103D3000663E0000000000000000003C660606062B
:103D4000663C0000000000000060607C66666666FD
:103D5000667C0000000000000000003C66667E06F5
:103D6000063C00000000000000780C0C0C7E0C0CDF
:103D70000C0C0000000000000000007C6666666617
:103D8000667C60603E0000000006063E6666666671
:103D900066660000000000001818001E18181818A9
:103DA000187E0000000000003030003C3030303021
:103DB000303030301E0000000006066666361E36C3
:103DC0006666000000000000001E18181818181879
:103DD000187E0000000000000000007ED6D6D6D677
:103DE000D6C60000000000000000003E6666666661
:103DF00066660000000000000000003C6666666623
:103E0000663C0000000000000000003E666666663A
:103E1000663E0606060000000000007C66666666D8
:103E2000667C60606000000000000066760E06069A
:103E300006060000000000000000007C06063C6052
:103E4000603E000000000000000C0C7E0C0C0C0C0E
:103E50000C780000000000000000006666666666E0
:103E6000667C000000000000000000666666666672
:103E70003C18000000000000000000C6D6D6D6D6D0
:103E80006C6C00000000000000000066663C183CFE
:103E90006666000000000000000000666666666658
:103EA000663C30180F0000000000007E6030180CE7
:103EB000067E00000000000000301818180C060CE8
:103EC00018181830000000000018181818181818D2
:103ED0001818181818000000000C18181830603056
:103EE0001818180C00000000008EDB7100000000A4
:103EF0000000000000000000183F00080000002043
:103F00006800000088370008803F00086800002033
:103F1000200400009837000800A24A0400000000B6
:103F20000000000001020304060708090000000069
:103F3000010203040102030406070809020406083B
:103F40003800000000000000925ED4EE5701B63F3A
:103F50002BA226FA7C9451BF3CF54883DBEA13C0C0
:103F600079E9263108AC5CBF08E8BE9CD9AEB03F09
:103F70001C5C3AE63CA32AC00000000000000000E0
:0400000508000131BD
:00000001FF
